{
  "contractName": "PaymentContract",
  "abi": [
    {
      "inputs": [],
      "stateMutability": "nonpayable",
      "type": "constructor"
    },
    {
      "anonymous": false,
      "inputs": [
        {
          "indexed": true,
          "internalType": "address",
          "name": "student",
          "type": "address"
        },
        {
          "indexed": false,
          "internalType": "uint256",
          "name": "amount",
          "type": "uint256"
        }
      ],
      "name": "PaymentMade",
      "type": "event"
    },
    {
      "inputs": [
        {
          "internalType": "address",
          "name": "",
          "type": "address"
        }
      ],
      "name": "balances",
      "outputs": [
        {
          "internalType": "uint256",
          "name": "",
          "type": "uint256"
        }
      ],
      "stateMutability": "view",
      "type": "function"
    },
    {
      "inputs": [],
      "name": "college",
      "outputs": [
        {
          "internalType": "address",
          "name": "",
          "type": "address"
        }
      ],
      "stateMutability": "view",
      "type": "function"
    },
    {
      "inputs": [],
      "name": "makePayment",
      "outputs": [],
      "stateMutability": "payable",
      "type": "function"
    },
    {
      "inputs": [],
      "name": "withdrawFunds",
      "outputs": [],
      "stateMutability": "nonpayable",
      "type": "function"
    }
  ],
  "bytecode": "0x608060405234801561000f575f80fd5b50335f806101000a81548173ffffffffffffffffffffffffffffffffffffffff021916908373ffffffffffffffffffffffffffffffffffffffff16021790555061071a8061005c5f395ff3fe60806040526004361061003e575f3560e01c806324600fc31461004257806327e235e31461005857806338d8640614610094578063d8d79700146100be575b5f80fd5b34801561004d575f80fd5b506100566100c8565b005b348015610063575f80fd5b5061007e60048036038101906100799190610404565b610289565b60405161008b9190610447565b60405180910390f35b34801561009f575f80fd5b506100a861029e565b6040516100b5919061046f565b60405180910390f35b6100c66102c1565b005b5f8054906101000a900473ffffffffffffffffffffffffffffffffffffffff1673ffffffffffffffffffffffffffffffffffffffff163373ffffffffffffffffffffffffffffffffffffffff1614610155576040517f08c379a000000000000000000000000000000000000000000000000000000000815260040161014c90610508565b60405180910390fd5b5f73ffffffffffffffffffffffffffffffffffffffff165f8054906101000a900473ffffffffffffffffffffffffffffffffffffffff1673ffffffffffffffffffffffffffffffffffffffff16036101e2576040517f08c379a00000000000000000000000000000000000000000000000000000000081526004016101d990610570565b60405180910390fd5b5f4711610224576040517f08c379a000000000000000000000000000000000000000000000000000000000815260040161021b906105d8565b60405180910390fd5b5f8054906101000a900473ffffffffffffffffffffffffffffffffffffffff1673ffffffffffffffffffffffffffffffffffffffff166108fc4790811502906040515f60405180830381858888f19350505050158015610286573d5f803e3d5ffd5b50565b6001602052805f5260405f205f915090505481565b5f8054906101000a900473ffffffffffffffffffffffffffffffffffffffff1681565b5f3411610303576040517f08c379a00000000000000000000000000000000000000000000000000000000081526004016102fa90610666565b60405180910390fd5b3460015f3373ffffffffffffffffffffffffffffffffffffffff1673ffffffffffffffffffffffffffffffffffffffff1681526020019081526020015f205f82825461034f91906106b1565b925050819055503373ffffffffffffffffffffffffffffffffffffffff167f3a2d0e41c506b136330c6e5e0295ccbf0966daece99bfe7c89020cc01dbfb8d63460405161039c9190610447565b60405180910390a2565b5f80fd5b5f73ffffffffffffffffffffffffffffffffffffffff82169050919050565b5f6103d3826103aa565b9050919050565b6103e3816103c9565b81146103ed575f80fd5b50565b5f813590506103fe816103da565b92915050565b5f60208284031215610419576104186103a6565b5b5f610426848285016103f0565b91505092915050565b5f819050919050565b6104418161042f565b82525050565b5f60208201905061045a5f830184610438565b92915050565b610469816103c9565b82525050565b5f6020820190506104825f830184610460565b92915050565b5f82825260208201905092915050565b7f4f6e6c792074686520636f6c6c6567652063616e2063616c6c207468697320665f8201527f756e6374696f6e00000000000000000000000000000000000000000000000000602082015250565b5f6104f2602783610488565b91506104fd82610498565b604082019050919050565b5f6020820190508181035f83015261051f816104e6565b9050919050565b7f436f6c6c6567652061646472657373206e6f74207365740000000000000000005f82015250565b5f61055a601783610488565b915061056582610526565b602082019050919050565b5f6020820190508181035f8301526105878161054e565b9050919050565b7f4e6f2066756e647320746f2077697468647261770000000000000000000000005f82015250565b5f6105c2601483610488565b91506105cd8261058e565b602082019050919050565b5f6020820190508181035f8301526105ef816105b6565b9050919050565b7f5061796d656e7420616d6f756e74206d757374206265206772656174657220745f8201527f68616e2030000000000000000000000000000000000000000000000000000000602082015250565b5f610650602583610488565b915061065b826105f6565b604082019050919050565b5f6020820190508181035f83015261067d81610644565b9050919050565b7f4e487b71000000000000000000000000000000000000000000000000000000005f52601160045260245ffd5b5f6106bb8261042f565b91506106c68361042f565b92508282019050808211156106de576106dd610684565b5b9291505056fea26469706673582212201c16388f1ed7932935c28eb36542d2fe1c03491625f72c5796543bdd3f5bee5b64736f6c63430008150033",
  "immutableReferences": {},
  "source": "// SPDX-License-Identifier: MIT\r\npragma solidity ^0.8.0;\r\n\r\ncontract PaymentContract {\r\n    address public college;\r\n    mapping(address => uint256) public balances;\r\n\r\n    event PaymentMade(address indexed student, uint256 amount);\r\n\r\n    modifier onlyCollege() {\r\n        require(msg.sender == college, \"Only the college can call this function\");\r\n        _;\r\n    }\r\n\r\n    constructor() {\r\n        college = msg.sender;\r\n    }\r\n\r\n    function makePayment() external payable {\r\n        require(msg.value > 0, \"Payment amount must be greater than 0\");\r\n        balances[msg.sender] += msg.value;\r\n        emit PaymentMade(msg.sender, msg.value);\r\n    }\r\n\r\n    function withdrawFunds() external onlyCollege {\r\n        require(college != address(0), \"College address not set\");\r\n        require(address(this).balance > 0, \"No funds to withdraw\");\r\n        \r\n        payable(college).transfer(address(this).balance);\r\n    }\r\n}\r\n",
  "sourcePath": "F:\\External_Projects\\KITS_College\\CollegeTraBloackChain\\api\\smartcontract\\contracts\\PaymentContract.sol",
  "compiler": {
    "name": "solc",
    "version": "0.8.21+commit.d9974bed.Emscripten.clang"
  },
  "schemaVersion": "3.4.16",
  "updatedAt": "2024-01-12T12:27:36.439Z",
  "devdoc": {
    "kind": "dev",
    "methods": {},
    "version": 1
  },
  "userdoc": {
    "kind": "user",
    "methods": {},
    "version": 1
  }
}